{
  "_format": "hh-sol-artifact-1",
  "contractName": "NFT",
  "sourceName": "src/backend/contracts/NFT.sol",
  "abi": [
    {
      "inputs": [],
      "stateMutability": "nonpayable",
      "type": "constructor"
    },
    {
      "anonymous": false,
      "inputs": [
        {
          "indexed": true,
          "internalType": "address",
          "name": "owner",
          "type": "address"
        },
        {
          "indexed": true,
          "internalType": "address",
          "name": "approved",
          "type": "address"
        },
        {
          "indexed": true,
          "internalType": "uint256",
          "name": "tokenId",
          "type": "uint256"
        }
      ],
      "name": "Approval",
      "type": "event"
    },
    {
      "anonymous": false,
      "inputs": [
        {
          "indexed": true,
          "internalType": "address",
          "name": "owner",
          "type": "address"
        },
        {
          "indexed": true,
          "internalType": "address",
          "name": "operator",
          "type": "address"
        },
        {
          "indexed": false,
          "internalType": "bool",
          "name": "approved",
          "type": "bool"
        }
      ],
      "name": "ApprovalForAll",
      "type": "event"
    },
    {
      "anonymous": false,
      "inputs": [
        {
          "indexed": true,
          "internalType": "address",
          "name": "from",
          "type": "address"
        },
        {
          "indexed": true,
          "internalType": "address",
          "name": "to",
          "type": "address"
        },
        {
          "indexed": true,
          "internalType": "uint256",
          "name": "tokenId",
          "type": "uint256"
        }
      ],
      "name": "Transfer",
      "type": "event"
    },
    {
      "inputs": [
        {
          "internalType": "address",
          "name": "to",
          "type": "address"
        },
        {
          "internalType": "uint256",
          "name": "tokenId",
          "type": "uint256"
        }
      ],
      "name": "approve",
      "outputs": [],
      "stateMutability": "nonpayable",
      "type": "function"
    },
    {
      "inputs": [
        {
          "internalType": "address",
          "name": "owner",
          "type": "address"
        }
      ],
      "name": "balanceOf",
      "outputs": [
        {
          "internalType": "uint256",
          "name": "",
          "type": "uint256"
        }
      ],
      "stateMutability": "view",
      "type": "function"
    },
    {
      "inputs": [
        {
          "internalType": "uint256",
          "name": "tokenId",
          "type": "uint256"
        }
      ],
      "name": "burn",
      "outputs": [],
      "stateMutability": "nonpayable",
      "type": "function"
    },
    {
      "inputs": [
        {
          "internalType": "uint256",
          "name": "tokenId",
          "type": "uint256"
        }
      ],
      "name": "getApproved",
      "outputs": [
        {
          "internalType": "address",
          "name": "",
          "type": "address"
        }
      ],
      "stateMutability": "view",
      "type": "function"
    },
    {
      "inputs": [
        {
          "internalType": "address",
          "name": "owner",
          "type": "address"
        },
        {
          "internalType": "address",
          "name": "operator",
          "type": "address"
        }
      ],
      "name": "isApprovedForAll",
      "outputs": [
        {
          "internalType": "bool",
          "name": "",
          "type": "bool"
        }
      ],
      "stateMutability": "view",
      "type": "function"
    },
    {
      "inputs": [
        {
          "internalType": "string",
          "name": "_tokenURI",
          "type": "string"
        }
      ],
      "name": "mint",
      "outputs": [
        {
          "internalType": "uint256",
          "name": "",
          "type": "uint256"
        }
      ],
      "stateMutability": "nonpayable",
      "type": "function"
    },
    {
      "inputs": [],
      "name": "name",
      "outputs": [
        {
          "internalType": "string",
          "name": "",
          "type": "string"
        }
      ],
      "stateMutability": "view",
      "type": "function"
    },
    {
      "inputs": [
        {
          "internalType": "uint256",
          "name": "tokenId",
          "type": "uint256"
        }
      ],
      "name": "ownerOf",
      "outputs": [
        {
          "internalType": "address",
          "name": "",
          "type": "address"
        }
      ],
      "stateMutability": "view",
      "type": "function"
    },
    {
      "inputs": [
        {
          "internalType": "address",
          "name": "from",
          "type": "address"
        },
        {
          "internalType": "address",
          "name": "to",
          "type": "address"
        },
        {
          "internalType": "uint256",
          "name": "tokenId",
          "type": "uint256"
        }
      ],
      "name": "safeTransferFrom",
      "outputs": [],
      "stateMutability": "nonpayable",
      "type": "function"
    },
    {
      "inputs": [
        {
          "internalType": "address",
          "name": "from",
          "type": "address"
        },
        {
          "internalType": "address",
          "name": "to",
          "type": "address"
        },
        {
          "internalType": "uint256",
          "name": "tokenId",
          "type": "uint256"
        },
        {
          "internalType": "bytes",
          "name": "data",
          "type": "bytes"
        }
      ],
      "name": "safeTransferFrom",
      "outputs": [],
      "stateMutability": "nonpayable",
      "type": "function"
    },
    {
      "inputs": [
        {
          "internalType": "address",
          "name": "operator",
          "type": "address"
        },
        {
          "internalType": "bool",
          "name": "approved",
          "type": "bool"
        }
      ],
      "name": "setApprovalForAll",
      "outputs": [],
      "stateMutability": "nonpayable",
      "type": "function"
    },
    {
      "inputs": [
        {
          "internalType": "bytes4",
          "name": "interfaceId",
          "type": "bytes4"
        }
      ],
      "name": "supportsInterface",
      "outputs": [
        {
          "internalType": "bool",
          "name": "",
          "type": "bool"
        }
      ],
      "stateMutability": "view",
      "type": "function"
    },
    {
      "inputs": [],
      "name": "symbol",
      "outputs": [
        {
          "internalType": "string",
          "name": "",
          "type": "string"
        }
      ],
      "stateMutability": "view",
      "type": "function"
    },
    {
      "inputs": [],
      "name": "tokenCount",
      "outputs": [
        {
          "internalType": "uint256",
          "name": "",
          "type": "uint256"
        }
      ],
      "stateMutability": "view",
      "type": "function"
    },
    {
      "inputs": [
        {
          "internalType": "uint256",
          "name": "tokenId",
          "type": "uint256"
        }
      ],
      "name": "tokenURI",
      "outputs": [
        {
          "internalType": "string",
          "name": "",
          "type": "string"
        }
      ],
      "stateMutability": "view",
      "type": "function"
    },
    {
      "inputs": [
        {
          "internalType": "address",
          "name": "from",
          "type": "address"
        },
        {
          "internalType": "address",
          "name": "to",
          "type": "address"
        },
        {
          "internalType": "uint256",
          "name": "tokenId",
          "type": "uint256"
        }
      ],
      "name": "transferFrom",
      "outputs": [],
      "stateMutability": "nonpayable",
      "type": "function"
    }
  ],
  "bytecode": "0x60806040523480156200001157600080fd5b506040518060400160405280600881526020017f44417070204e46540000000000000000000000000000000000000000000000008152506040518060400160405280600481526020017f4441505000000000000000000000000000000000000000000000000000000000815250816000908051906020019062000096929190620000f9565b508060019080519060200190620000af929190620000f9565b50505033600760006101000a81548173ffffffffffffffffffffffffffffffffffffffff021916908373ffffffffffffffffffffffffffffffffffffffff1602179055506200020e565b8280546200010790620001a9565b90600052602060002090601f0160209004810192826200012b576000855562000177565b82601f106200014657805160ff191683800117855562000177565b8280016001018555821562000177579182015b828111156200017657825182559160200191906001019062000159565b5b5090506200018691906200018a565b5090565b5b80821115620001a55760008160009055506001016200018b565b5090565b60006002820490506001821680620001c257607f821691505b60208210811415620001d957620001d8620001df565b5b50919050565b7f4e487b7100000000000000000000000000000000000000000000000000000000600052602260045260246000fd5b612c57806200021e6000396000f3fe608060405234801561001057600080fd5b50600436106101005760003560e01c806370a0823111610097578063b88d4fde11610066578063b88d4fde146102ab578063c87b56dd146102c7578063d85d3d27146102f7578063e985e9c51461032757610100565b806370a082311461022357806395d89b41146102535780639f181b5e14610271578063a22cb4651461028f57610100565b806323b872dd116100d357806323b872dd1461019f57806342842e0e146101bb57806342966c68146101d75780636352211e146101f357610100565b806301ffc9a71461010557806306fdde0314610135578063081812fc14610153578063095ea7b314610183575b600080fd5b61011f600480360381019061011a9190611e33565b610357565b60405161012c9190612234565b60405180910390f35b61013d610439565b60405161014a919061224f565b60405180910390f35b61016d60048036038101906101689190611ec6565b6104cb565b60405161017a91906121cd565b60405180910390f35b61019d60048036038101906101989190611df7565b610511565b005b6101b960048036038101906101b49190611cf1565b610629565b005b6101d560048036038101906101d09190611cf1565b610689565b005b6101f160048036038101906101ec9190611ec6565b6106a9565b005b61020d60048036038101906102089190611ec6565b610745565b60405161021a91906121cd565b60405180910390f35b61023d60048036038101906102389190611c8c565b6107f7565b60405161024a9190612431565b60405180910390f35b61025b6108af565b604051610268919061224f565b60405180910390f35b610279610941565b6040516102869190612431565b60405180910390f35b6102a960048036038101906102a49190611dbb565b610947565b005b6102c560048036038101906102c09190611d40565b61095d565b005b6102e160048036038101906102dc9190611ec6565b6109bf565b6040516102ee919061224f565b60405180910390f35b610311600480360381019061030c9190611e85565b610ad2565b60405161031e9190612431565b60405180910390f35b610341600480360381019061033c9190611cb5565b610b0e565b60405161034e9190612234565b60405180910390f35b60007f80ac58cd000000000000000000000000000000000000000000000000000000007bffffffffffffffffffffffffffffffffffffffffffffffffffffffff1916827bffffffffffffffffffffffffffffffffffffffffffffffffffffffff1916148061042257507f5b5e139f000000000000000000000000000000000000000000000000000000007bffffffffffffffffffffffffffffffffffffffffffffffffffffffff1916827bffffffffffffffffffffffffffffffffffffffffffffffffffffffff1916145b80610432575061043182610ba2565b5b9050919050565b60606000805461044890612687565b80601f016020809104026020016040519081016040528092919081815260200182805461047490612687565b80156104c15780601f10610496576101008083540402835291602001916104c1565b820191906000526020600020905b8154815290600101906020018083116104a457829003601f168201915b5050505050905090565b60006104d682610c0c565b6004600083815260200190815260200160002060009054906101000a900473ffffffffffffffffffffffffffffffffffffffff169050919050565b600061051c82610745565b90508073ffffffffffffffffffffffffffffffffffffffff168373ffffffffffffffffffffffffffffffffffffffff16141561058d576040517f08c379a0000000000000000000000000000000000000000000000000000000008152600401610584906123b1565b60405180910390fd5b8073ffffffffffffffffffffffffffffffffffffffff166105ac610c57565b73ffffffffffffffffffffffffffffffffffffffff1614806105db57506105da816105d5610c57565b610b0e565b5b61061a576040517f08c379a000000000000000000000000000000000000000000000000000000000815260040161061190612351565b60405180910390fd5b6106248383610c5f565b505050565b61063a610634610c57565b82610d18565b610679576040517f08c379a0000000000000000000000000000000000000000000000000000000008152600401610670906123f1565b60405180910390fd5b610684838383610dad565b505050565b6106a48383836040518060200160405280600081525061095d565b505050565b3373ffffffffffffffffffffffffffffffffffffffff16600760009054906101000a900473ffffffffffffffffffffffffffffffffffffffff1673ffffffffffffffffffffffffffffffffffffffff1614610739576040517f08c379a0000000000000000000000000000000000000000000000000000000008152600401610730906123d1565b60405180910390fd5b61074281611014565b50565b6000806002600084815260200190815260200160002060009054906101000a900473ffffffffffffffffffffffffffffffffffffffff169050600073ffffffffffffffffffffffffffffffffffffffff168173ffffffffffffffffffffffffffffffffffffffff1614156107ee576040517f08c379a00000000000000000000000000000000000000000000000000000000081526004016107e590612391565b60405180910390fd5b80915050919050565b60008073ffffffffffffffffffffffffffffffffffffffff168273ffffffffffffffffffffffffffffffffffffffff161415610868576040517f08c379a000000000000000000000000000000000000000000000000000000000815260040161085f90612311565b60405180910390fd5b600360008373ffffffffffffffffffffffffffffffffffffffff1673ffffffffffffffffffffffffffffffffffffffff168152602001908152602001600020549050919050565b6060600180546108be90612687565b80601f01602080910402602001604051908101604052809291908181526020018280546108ea90612687565b80156109375780601f1061090c57610100808354040283529160200191610937565b820191906000526020600020905b81548152906001019060200180831161091a57829003601f168201915b5050505050905090565b60085481565b610959610952610c57565b8383611067565b5050565b61096e610968610c57565b83610d18565b6109ad576040517f08c379a00000000000000000000000000000000000000000000000000000000081526004016109a490612411565b60405180910390fd5b6109b9848484846111d4565b50505050565b60606109ca82610c0c565b60006006600084815260200190815260200160002080546109ea90612687565b80601f0160208091040260200160405190810160405280929190818152602001828054610a1690612687565b8015610a635780601f10610a3857610100808354040283529160200191610a63565b820191906000526020600020905b815481529060010190602001808311610a4657829003601f168201915b505050505090506000610a74611230565b9050600081511415610a8a578192505050610acd565b600082511115610abf578082604051602001610aa79291906121a9565b60405160208183030381529060405292505050610acd565b610ac884611247565b925050505b919050565b600060086000815480929190610ae7906126ea565b9190505550610af8336008546112af565b610b04600854836112cd565b6008549050919050565b6000600560008473ffffffffffffffffffffffffffffffffffffffff1673ffffffffffffffffffffffffffffffffffffffff16815260200190815260200160002060008373ffffffffffffffffffffffffffffffffffffffff1673ffffffffffffffffffffffffffffffffffffffff16815260200190815260200160002060009054906101000a900460ff16905092915050565b60007f01ffc9a7000000000000000000000000000000000000000000000000000000007bffffffffffffffffffffffffffffffffffffffffffffffffffffffff1916827bffffffffffffffffffffffffffffffffffffffffffffffffffffffff1916149050919050565b610c1581611341565b610c54576040517f08c379a0000000000000000000000000000000000000000000000000000000008152600401610c4b90612391565b60405180910390fd5b50565b600033905090565b816004600083815260200190815260200160002060006101000a81548173ffffffffffffffffffffffffffffffffffffffff021916908373ffffffffffffffffffffffffffffffffffffffff160217905550808273ffffffffffffffffffffffffffffffffffffffff16610cd283610745565b73ffffffffffffffffffffffffffffffffffffffff167f8c5be1e5ebec7d5bd14f71427d1e84f3dd0314c0f7b2291e5b200ac8c7c3b92560405160405180910390a45050565b600080610d2483610745565b90508073ffffffffffffffffffffffffffffffffffffffff168473ffffffffffffffffffffffffffffffffffffffff161480610d665750610d658185610b0e565b5b80610da457508373ffffffffffffffffffffffffffffffffffffffff16610d8c846104cb565b73ffffffffffffffffffffffffffffffffffffffff16145b91505092915050565b8273ffffffffffffffffffffffffffffffffffffffff16610dcd82610745565b73ffffffffffffffffffffffffffffffffffffffff1614610e23576040517f08c379a0000000000000000000000000000000000000000000000000000000008152600401610e1a90612291565b60405180910390fd5b600073ffffffffffffffffffffffffffffffffffffffff168273ffffffffffffffffffffffffffffffffffffffff161415610e93576040517f08c379a0000000000000000000000000000000000000000000000000000000008152600401610e8a906122d1565b60405180910390fd5b610e9e8383836113ad565b610ea9600082610c5f565b6001600360008573ffffffffffffffffffffffffffffffffffffffff1673ffffffffffffffffffffffffffffffffffffffff1681526020019081526020016000206000828254610ef9919061259d565b925050819055506001600360008473ffffffffffffffffffffffffffffffffffffffff1673ffffffffffffffffffffffffffffffffffffffff1681526020019081526020016000206000828254610f509190612516565b92505081905550816002600083815260200190815260200160002060006101000a81548173ffffffffffffffffffffffffffffffffffffffff021916908373ffffffffffffffffffffffffffffffffffffffff160217905550808273ffffffffffffffffffffffffffffffffffffffff168473ffffffffffffffffffffffffffffffffffffffff167fddf252ad1be2c89b69c2b068fc378daa952ba7f163c4a11628f55a4df523b3ef60405160405180910390a461100f8383836113b2565b505050565b61101d816113b7565b600060066000838152602001908152602001600020805461103d90612687565b905014611064576006600082815260200190815260200160002060006110639190611a70565b5b50565b8173ffffffffffffffffffffffffffffffffffffffff168373ffffffffffffffffffffffffffffffffffffffff1614156110d6576040517f08c379a00000000000000000000000000000000000000000000000000000000081526004016110cd906122f1565b60405180910390fd5b80600560008573ffffffffffffffffffffffffffffffffffffffff1673ffffffffffffffffffffffffffffffffffffffff16815260200190815260200160002060008473ffffffffffffffffffffffffffffffffffffffff1673ffffffffffffffffffffffffffffffffffffffff16815260200190815260200160002060006101000a81548160ff0219169083151502179055508173ffffffffffffffffffffffffffffffffffffffff168373ffffffffffffffffffffffffffffffffffffffff167f17307eab39ab6107e8899845ad3d59bd9653f200f220920489ca2b5937696c31836040516111c79190612234565b60405180910390a3505050565b6111df848484610dad565b6111eb848484846114d4565b61122a576040517f08c379a000000000000000000000000000000000000000000000000000000000815260040161122190612271565b60405180910390fd5b50505050565b606060405180602001604052806000815250905090565b606061125282610c0c565b600061125c611230565b9050600081511161127c57604051806020016040528060008152506112a7565b806112868461166b565b6040516020016112979291906121a9565b6040516020818303038152906040525b915050919050565b6112c9828260405180602001604052806000815250611818565b5050565b6112d682611341565b611315576040517f08c379a000000000000000000000000000000000000000000000000000000000815260040161130c90612331565b60405180910390fd5b8060066000848152602001908152602001600020908051906020019061133c929190611ab0565b505050565b60008073ffffffffffffffffffffffffffffffffffffffff166002600084815260200190815260200160002060009054906101000a900473ffffffffffffffffffffffffffffffffffffffff1673ffffffffffffffffffffffffffffffffffffffff1614159050919050565b505050565b505050565b60006113c282610745565b90506113d0816000846113ad565b6113db600083610c5f565b6001600360008373ffffffffffffffffffffffffffffffffffffffff1673ffffffffffffffffffffffffffffffffffffffff168152602001908152602001600020600082825461142b919061259d565b925050819055506002600083815260200190815260200160002060006101000a81549073ffffffffffffffffffffffffffffffffffffffff021916905581600073ffffffffffffffffffffffffffffffffffffffff168273ffffffffffffffffffffffffffffffffffffffff167fddf252ad1be2c89b69c2b068fc378daa952ba7f163c4a11628f55a4df523b3ef60405160405180910390a46114d0816000846113b2565b5050565b60006114f58473ffffffffffffffffffffffffffffffffffffffff16611873565b1561165e578373ffffffffffffffffffffffffffffffffffffffff1663150b7a0261151e610c57565b8786866040518563ffffffff1660e01b815260040161154094939291906121e8565b602060405180830381600087803b15801561155a57600080fd5b505af192505050801561158b57506040513d601f19601f820116820180604052508101906115889190611e5c565b60015b61160e573d80600081146115bb576040519150601f19603f3d011682016040523d82523d6000602084013e6115c0565b606091505b50600081511415611606576040517f08c379a00000000000000000000000000000000000000000000000000000000081526004016115fd90612271565b60405180910390fd5b805181602001fd5b63150b7a0260e01b7bffffffffffffffffffffffffffffffffffffffffffffffffffffffff1916817bffffffffffffffffffffffffffffffffffffffffffffffffffffffff191614915050611663565b600190505b949350505050565b606060008214156116b3576040518060400160405280600181526020017f30000000000000000000000000000000000000000000000000000000000000008152509050611813565b600082905060005b600082146116e55780806116ce906126ea565b915050600a826116de919061256c565b91506116bb565b60008167ffffffffffffffff811115611727577f4e487b7100000000000000000000000000000000000000000000000000000000600052604160045260246000fd5b6040519080825280601f01601f1916602001820160405280156117595781602001600182028036833780820191505090505b5090505b6000851461180c57600182611772919061259d565b9150600a856117819190612733565b603061178d9190612516565b60f81b8183815181106117c9577f4e487b7100000000000000000000000000000000000000000000000000000000600052603260045260246000fd5b60200101907effffffffffffffffffffffffffffffffffffffffffffffffffffffffffffff1916908160001a905350600a85611805919061256c565b945061175d565b8093505050505b919050565b6118228383611896565b61182f60008484846114d4565b61186e576040517f08c379a000000000000000000000000000000000000000000000000000000000815260040161186590612271565b60405180910390fd5b505050565b6000808273ffffffffffffffffffffffffffffffffffffffff163b119050919050565b600073ffffffffffffffffffffffffffffffffffffffff168273ffffffffffffffffffffffffffffffffffffffff161415611906576040517f08c379a00000000000000000000000000000000000000000000000000000000081526004016118fd90612371565b60405180910390fd5b61190f81611341565b1561194f576040517f08c379a0000000000000000000000000000000000000000000000000000000008152600401611946906122b1565b60405180910390fd5b61195b600083836113ad565b6001600360008473ffffffffffffffffffffffffffffffffffffffff1673ffffffffffffffffffffffffffffffffffffffff16815260200190815260200160002060008282546119ab9190612516565b92505081905550816002600083815260200190815260200160002060006101000a81548173ffffffffffffffffffffffffffffffffffffffff021916908373ffffffffffffffffffffffffffffffffffffffff160217905550808273ffffffffffffffffffffffffffffffffffffffff16600073ffffffffffffffffffffffffffffffffffffffff167fddf252ad1be2c89b69c2b068fc378daa952ba7f163c4a11628f55a4df523b3ef60405160405180910390a4611a6c600083836113b2565b5050565b508054611a7c90612687565b6000825580601f10611a8e5750611aad565b601f016020900490600052602060002090810190611aac9190611b36565b5b50565b828054611abc90612687565b90600052602060002090601f016020900481019282611ade5760008555611b25565b82601f10611af757805160ff1916838001178555611b25565b82800160010185558215611b25579182015b82811115611b24578251825591602001919060010190611b09565b5b509050611b329190611b36565b5090565b5b80821115611b4f576000816000905550600101611b37565b5090565b6000611b66611b6184612471565b61244c565b905082815260208101848484011115611b7e57600080fd5b611b89848285612645565b509392505050565b6000611ba4611b9f846124a2565b61244c565b905082815260208101848484011115611bbc57600080fd5b611bc7848285612645565b509392505050565b600081359050611bde81612bc5565b92915050565b600081359050611bf381612bdc565b92915050565b600081359050611c0881612bf3565b92915050565b600081519050611c1d81612bf3565b92915050565b600082601f830112611c3457600080fd5b8135611c44848260208601611b53565b91505092915050565b600082601f830112611c5e57600080fd5b8135611c6e848260208601611b91565b91505092915050565b600081359050611c8681612c0a565b92915050565b600060208284031215611c9e57600080fd5b6000611cac84828501611bcf565b91505092915050565b60008060408385031215611cc857600080fd5b6000611cd685828601611bcf565b9250506020611ce785828601611bcf565b9150509250929050565b600080600060608486031215611d0657600080fd5b6000611d1486828701611bcf565b9350506020611d2586828701611bcf565b9250506040611d3686828701611c77565b9150509250925092565b60008060008060808587031215611d5657600080fd5b6000611d6487828801611bcf565b9450506020611d7587828801611bcf565b9350506040611d8687828801611c77565b925050606085013567ffffffffffffffff811115611da357600080fd5b611daf87828801611c23565b91505092959194509250565b60008060408385031215611dce57600080fd5b6000611ddc85828601611bcf565b9250506020611ded85828601611be4565b9150509250929050565b60008060408385031215611e0a57600080fd5b6000611e1885828601611bcf565b9250506020611e2985828601611c77565b9150509250929050565b600060208284031215611e4557600080fd5b6000611e5384828501611bf9565b91505092915050565b600060208284031215611e6e57600080fd5b6000611e7c84828501611c0e565b91505092915050565b600060208284031215611e9757600080fd5b600082013567ffffffffffffffff811115611eb157600080fd5b611ebd84828501611c4d565b91505092915050565b600060208284031215611ed857600080fd5b6000611ee684828501611c77565b91505092915050565b611ef8816125d1565b82525050565b611f07816125e3565b82525050565b6000611f18826124d3565b611f2281856124e9565b9350611f32818560208601612654565b611f3b81612820565b840191505092915050565b6000611f51826124de565b611f5b81856124fa565b9350611f6b818560208601612654565b611f7481612820565b840191505092915050565b6000611f8a826124de565b611f94818561250b565b9350611fa4818560208601612654565b80840191505092915050565b6000611fbd6032836124fa565b9150611fc882612831565b604082019050919050565b6000611fe06025836124fa565b9150611feb82612880565b604082019050919050565b6000612003601c836124fa565b915061200e826128cf565b602082019050919050565b60006120266024836124fa565b9150612031826128f8565b604082019050919050565b60006120496019836124fa565b915061205482612947565b602082019050919050565b600061206c6029836124fa565b915061207782612970565b604082019050919050565b600061208f602e836124fa565b915061209a826129bf565b604082019050919050565b60006120b2603e836124fa565b91506120bd82612a0e565b604082019050919050565b60006120d56020836124fa565b91506120e082612a5d565b602082019050919050565b60006120f86018836124fa565b915061210382612a86565b602082019050919050565b600061211b6021836124fa565b915061212682612aaf565b604082019050919050565b600061213e6013836124fa565b915061214982612afe565b602082019050919050565b60006121616031836124fa565b915061216c82612b27565b604082019050919050565b6000612184602e836124fa565b915061218f82612b76565b604082019050919050565b6121a38161263b565b82525050565b60006121b58285611f7f565b91506121c18284611f7f565b91508190509392505050565b60006020820190506121e26000830184611eef565b92915050565b60006080820190506121fd6000830187611eef565b61220a6020830186611eef565b612217604083018561219a565b81810360608301526122298184611f0d565b905095945050505050565b60006020820190506122496000830184611efe565b92915050565b600060208201905081810360008301526122698184611f46565b905092915050565b6000602082019050818103600083015261228a81611fb0565b9050919050565b600060208201905081810360008301526122aa81611fd3565b9050919050565b600060208201905081810360008301526122ca81611ff6565b9050919050565b600060208201905081810360008301526122ea81612019565b9050919050565b6000602082019050818103600083015261230a8161203c565b9050919050565b6000602082019050818103600083015261232a8161205f565b9050919050565b6000602082019050818103600083015261234a81612082565b9050919050565b6000602082019050818103600083015261236a816120a5565b9050919050565b6000602082019050818103600083015261238a816120c8565b9050919050565b600060208201905081810360008301526123aa816120eb565b9050919050565b600060208201905081810360008301526123ca8161210e565b9050919050565b600060208201905081810360008301526123ea81612131565b9050919050565b6000602082019050818103600083015261240a81612154565b9050919050565b6000602082019050818103600083015261242a81612177565b9050919050565b6000602082019050612446600083018461219a565b92915050565b6000612456612467565b905061246282826126b9565b919050565b6000604051905090565b600067ffffffffffffffff82111561248c5761248b6127f1565b5b61249582612820565b9050602081019050919050565b600067ffffffffffffffff8211156124bd576124bc6127f1565b5b6124c682612820565b9050602081019050919050565b600081519050919050565b600081519050919050565b600082825260208201905092915050565b600082825260208201905092915050565b600081905092915050565b60006125218261263b565b915061252c8361263b565b9250827fffffffffffffffffffffffffffffffffffffffffffffffffffffffffffffffff0382111561256157612560612764565b5b828201905092915050565b60006125778261263b565b91506125828361263b565b92508261259257612591612793565b5b828204905092915050565b60006125a88261263b565b91506125b38361263b565b9250828210156125c6576125c5612764565b5b828203905092915050565b60006125dc8261261b565b9050919050565b60008115159050919050565b60007fffffffff0000000000000000000000000000000000000000000000000000000082169050919050565b600073ffffffffffffffffffffffffffffffffffffffff82169050919050565b6000819050919050565b82818337600083830152505050565b60005b83811015612672578082015181840152602081019050612657565b83811115612681576000848401525b50505050565b6000600282049050600182168061269f57607f821691505b602082108114156126b3576126b26127c2565b5b50919050565b6126c282612820565b810181811067ffffffffffffffff821117156126e1576126e06127f1565b5b80604052505050565b60006126f58261263b565b91507fffffffffffffffffffffffffffffffffffffffffffffffffffffffffffffffff82141561272857612727612764565b5b600182019050919050565b600061273e8261263b565b91506127498361263b565b92508261275957612758612793565b5b828206905092915050565b7f4e487b7100000000000000000000000000000000000000000000000000000000600052601160045260246000fd5b7f4e487b7100000000000000000000000000000000000000000000000000000000600052601260045260246000fd5b7f4e487b7100000000000000000000000000000000000000000000000000000000600052602260045260246000fd5b7f4e487b7100000000000000000000000000000000000000000000000000000000600052604160045260246000fd5b6000601f19601f8301169050919050565b7f4552433732313a207472616e7366657220746f206e6f6e20455243373231526560008201527f63656976657220696d706c656d656e7465720000000000000000000000000000602082015250565b7f4552433732313a207472616e736665722066726f6d20696e636f72726563742060008201527f6f776e6572000000000000000000000000000000000000000000000000000000602082015250565b7f4552433732313a20746f6b656e20616c7265616479206d696e74656400000000600082015250565b7f4552433732313a207472616e7366657220746f20746865207a65726f2061646460008201527f7265737300000000000000000000000000000000000000000000000000000000602082015250565b7f4552433732313a20617070726f766520746f2063616c6c657200000000000000600082015250565b7f4552433732313a2061646472657373207a65726f206973206e6f74206120766160008201527f6c6964206f776e65720000000000000000000000000000000000000000000000602082015250565b7f45524337323155524953746f726167653a2055524920736574206f66206e6f6e60008201527f6578697374656e7420746f6b656e000000000000000000000000000000000000602082015250565b7f4552433732313a20617070726f76652063616c6c6572206973206e6f7420746f60008201527f6b656e206f776e6572206e6f7220617070726f76656420666f7220616c6c0000602082015250565b7f4552433732313a206d696e7420746f20746865207a65726f2061646472657373600082015250565b7f4552433732313a20696e76616c696420746f6b656e2049440000000000000000600082015250565b7f4552433732313a20617070726f76616c20746f2063757272656e74206f776e6560008201527f7200000000000000000000000000000000000000000000000000000000000000602082015250565b7f53656e646572206973206e6f74206f776e657200000000000000000000000000600082015250565b7f4552433732313a207472616e736665722063616c6c6572206973206e6f74206f60008201527f776e6572206e6f7220617070726f766564000000000000000000000000000000602082015250565b7f4552433732313a2063616c6c6572206973206e6f7420746f6b656e206f776e6560008201527f72206e6f7220617070726f766564000000000000000000000000000000000000602082015250565b612bce816125d1565b8114612bd957600080fd5b50565b612be5816125e3565b8114612bf057600080fd5b50565b612bfc816125ef565b8114612c0757600080fd5b50565b612c138161263b565b8114612c1e57600080fd5b5056fea2646970667358221220f1efc8176c12574db413b94cdd96afea26a91dcc115b53e265266b99f16ccc4964736f6c63430008040033",
  "linkReferences": {},
  "deployedLinkReferences": {}
}